{"src/ProfileRegistry.sol":{"ProfileRegistry":{"abi":[{"anonymous":false,"inputs":[{"indexed":true,"internalType":"address","name":"owner","type":"address"},{"indexed":false,"internalType":"string","name":"cid","type":"string"}],"name":"ProfileSet","type":"event"},{"inputs":[{"internalType":"address","name":"owner","type":"address"}],"name":"getProfile","outputs":[{"internalType":"string","name":"cid","type":"string"}],"stateMutability":"view","type":"function"},{"inputs":[{"internalType":"string","name":"cid","type":"string"}],"name":"setProfile","outputs":[],"stateMutability":"nonpayable","type":"function"}],"evm":{"bytecode":{"linkReferences":{},"object":"608060405234801561001057600080fd5b506107a8806100206000396000f3fe608060405234801561001057600080fd5b50600436106100365760003560e01c80630f53a4701461003b578063235b37b11461006b575b600080fd5b61005560048036038101906100509190610261565b610087565b604051610062919061031e565b60405180910390f35b610085600480360381019061008091906103a5565b610157565b005b60606000808373ffffffffffffffffffffffffffffffffffffffff1673ffffffffffffffffffffffffffffffffffffffff16815260200190815260200160002080546100d290610421565b80601f01602080910402602001604051908101604052809291908181526020018280546100fe90610421565b801561014b5780601f106101205761010080835404028352916020019161014b565b820191906000526020600020905b81548152906001019060200180831161012e57829003601f168201915b50505050509050919050565b81816000803373ffffffffffffffffffffffffffffffffffffffff1673ffffffffffffffffffffffffffffffffffffffff16815260200190815260200160002091826101a4929190610642565b503373ffffffffffffffffffffffffffffffffffffffff167f56d78f91013a9df87c3059830b445edb071285effe6a7fe07fe1b235b9ae0fc383836040516101ed92919061074e565b60405180910390a25050565b600080fd5b600080fd5b600073ffffffffffffffffffffffffffffffffffffffff82169050919050565b600061022e82610203565b9050919050565b61023e81610223565b811461024957600080fd5b50565b60008135905061025b81610235565b92915050565b600060208284031215610277576102766101f9565b5b60006102858482850161024c565b91505092915050565b600081519050919050565b600082825260208201905092915050565b60005b838110156102c85780820151818401526020810190506102ad565b60008484015250505050565b6000601f19601f8301169050919050565b60006102f08261028e565b6102fa8185610299565b935061030a8185602086016102aa565b610313816102d4565b840191505092915050565b6000602082019050818103600083015261033881846102e5565b905092915050565b600080fd5b600080fd5b600080fd5b60008083601f84011261036557610364610340565b5b8235905067ffffffffffffffff81111561038257610381610345565b5b60208301915083600182028301111561039e5761039d61034a565b5b9250929050565b600080602083850312156103bc576103bb6101f9565b5b600083013567ffffffffffffffff8111156103da576103d96101fe565b5b6103e68582860161034f565b92509250509250929050565b7f4e487b7100000000000000000000000000000000000000000000000000000000600052602260045260246000fd5b6000600282049050600182168061043957607f821691505b60208210810361044c5761044b6103f2565b5b50919050565b600082905092915050565b7f4e487b7100000000000000000000000000000000000000000000000000000000600052604160045260246000fd5b60008190508160005260206000209050919050565b60006020601f8301049050919050565b600082821b905092915050565b6000600883026104ee7fffffffffffffffffffffffffffffffffffffffffffffffffffffffffffffffff826104b1565b6104f886836104b1565b95508019841693508086168417925050509392505050565b6000819050919050565b6000819050919050565b600061053f61053a61053584610510565b61051a565b610510565b9050919050565b6000819050919050565b61055983610524565b61056d61056582610546565b8484546104be565b825550505050565b600090565b610582610575565b61058d818484610550565b505050565b5b818110156105b1576105a660008261057a565b600181019050610593565b5050565b601f8211156105f6576105c78161048c565b6105d0846104a1565b810160208510156105df578190505b6105f36105eb856104a1565b830182610592565b50505b505050565b600082821c905092915050565b6000610619600019846008026105fb565b1980831691505092915050565b60006106328383610608565b9150826002028217905092915050565b61064c8383610452565b67ffffffffffffffff8111156106655761066461045d565b5b61066f8254610421565b61067a8282856105b5565b6000601f8311600181146106a95760008415610697578287013590505b6106a18582610626565b865550610709565b601f1984166106b78661048c565b60005b828110156106df578489013582556001820191506020850194506020810190506106ba565b868310156106fc57848901356106f8601f891682610608565b8355505b6001600288020188555050505b50505050505050565b82818337600083830152505050565b600061072d8385610299565b935061073a838584610712565b610743836102d4565b840190509392505050565b60006020820190508181036000830152610769818486610721565b9050939250505056fea2646970667358221220e8f103fc6a59e7d9054b85044776fd56bdd667162ae1059a65360f3f2ebfd55064736f6c63430008150033","opcodes":"PUSH1 0x80 PUSH1 0x40 MSTORE CALLVALUE DUP1 ISZERO PUSH2 0x10 JUMPI PUSH1 0x0 DUP1 REVERT JUMPDEST POP PUSH2 0x7A8 DUP1 PUSH2 0x20 PUSH1 0x0 CODECOPY PUSH1 0x0 RETURN INVALID PUSH1 0x80 PUSH1 0x40 MSTORE CALLVALUE DUP1 ISZERO PUSH2 0x10 JUMPI PUSH1 0x0 DUP1 REVERT JUMPDEST POP PUSH1 0x4 CALLDATASIZE LT PUSH2 0x36 JUMPI PUSH1 0x0 CALLDATALOAD PUSH1 0xE0 SHR DUP1 PUSH4 0xF53A470 EQ PUSH2 0x3B JUMPI DUP1 PUSH4 0x235B37B1 EQ PUSH2 0x6B JUMPI JUMPDEST PUSH1 0x0 DUP1 REVERT JUMPDEST PUSH2 0x55 PUSH1 0x4 DUP1 CALLDATASIZE SUB DUP2 ADD SWAP1 PUSH2 0x50 SWAP2 SWAP1 PUSH2 0x261 JUMP JUMPDEST PUSH2 0x87 JUMP JUMPDEST PUSH1 0x40 MLOAD PUSH2 0x62 SWAP2 SWAP1 PUSH2 0x31E JUMP JUMPDEST PUSH1 0x40 MLOAD DUP1 SWAP2 SUB SWAP1 RETURN JUMPDEST PUSH2 0x85 PUSH1 0x4 DUP1 CALLDATASIZE SUB DUP2 ADD SWAP1 PUSH2 0x80 SWAP2 SWAP1 PUSH2 0x3A5 JUMP JUMPDEST PUSH2 0x157 JUMP JUMPDEST STOP JUMPDEST PUSH1 0x60 PUSH1 0x0 DUP1 DUP4 PUSH20 0xFFFFFFFFFFFFFFFFFFFFFFFFFFFFFFFFFFFFFFFF AND PUSH20 0xFFFFFFFFFFFFFFFFFFFFFFFFFFFFFFFFFFFFFFFF AND DUP2 MSTORE PUSH1 0x20 ADD SWAP1 DUP2 MSTORE PUSH1 0x20 ADD PUSH1 0x0 KECCAK256 DUP1 SLOAD PUSH2 0xD2 SWAP1 PUSH2 0x421 JUMP JUMPDEST DUP1 PUSH1 0x1F ADD PUSH1 0x20 DUP1 SWAP2 DIV MUL PUSH1 0x20 ADD PUSH1 0x40 MLOAD SWAP1 DUP2 ADD PUSH1 0x40 MSTORE DUP1 SWAP3 SWAP2 SWAP1 DUP2 DUP2 MSTORE PUSH1 0x20 ADD DUP3 DUP1 SLOAD PUSH2 0xFE SWAP1 PUSH2 0x421 JUMP JUMPDEST DUP1 ISZERO PUSH2 0x14B JUMPI DUP1 PUSH1 0x1F LT PUSH2 0x120 JUMPI PUSH2 0x100 DUP1 DUP4 SLOAD DIV MUL DUP4 MSTORE SWAP2 PUSH1 0x20 ADD SWAP2 PUSH2 0x14B JUMP JUMPDEST DUP3 ADD SWAP2 SWAP1 PUSH1 0x0 MSTORE PUSH1 0x20 PUSH1 0x0 KECCAK256 SWAP1 JUMPDEST DUP2 SLOAD DUP2 MSTORE SWAP1 PUSH1 0x1 ADD SWAP1 PUSH1 0x20 ADD DUP1 DUP4 GT PUSH2 0x12E JUMPI DUP3 SWAP1 SUB PUSH1 0x1F AND DUP3 ADD SWAP2 JUMPDEST POP POP POP POP POP SWAP1 POP SWAP2 SWAP1 POP JUMP JUMPDEST DUP2 DUP2 PUSH1 0x0 DUP1 CALLER PUSH20 0xFFFFFFFFFFFFFFFFFFFFFFFFFFFFFFFFFFFFFFFF AND PUSH20 0xFFFFFFFFFFFFFFFFFFFFFFFFFFFFFFFFFFFFFFFF AND DUP2 MSTORE PUSH1 0x20 ADD SWAP1 DUP2 MSTORE PUSH1 0x20 ADD PUSH1 0x0 KECCAK256 SWAP2 DUP3 PUSH2 0x1A4 SWAP3 SWAP2 SWAP1 PUSH2 0x642 JUMP JUMPDEST POP CALLER PUSH20 0xFFFFFFFFFFFFFFFFFFFFFFFFFFFFFFFFFFFFFFFF AND PUSH32 0x56D78F91013A9DF87C3059830B445EDB071285EFFE6A7FE07FE1B235B9AE0FC3 DUP4 DUP4 PUSH1 0x40 MLOAD PUSH2 0x1ED SWAP3 SWAP2 SWAP1 PUSH2 0x74E JUMP JUMPDEST PUSH1 0x40 MLOAD DUP1 SWAP2 SUB SWAP1 LOG2 POP POP JUMP JUMPDEST PUSH1 0x0 DUP1 REVERT JUMPDEST PUSH1 0x0 DUP1 REVERT JUMPDEST PUSH1 0x0 PUSH20 0xFFFFFFFFFFFFFFFFFFFFFFFFFFFFFFFFFFFFFFFF DUP3 AND SWAP1 POP SWAP2 SWAP1 POP JUMP JUMPDEST PUSH1 0x0 PUSH2 0x22E DUP3 PUSH2 0x203 JUMP JUMPDEST SWAP1 POP SWAP2 SWAP1 POP JUMP JUMPDEST PUSH2 0x23E DUP2 PUSH2 0x223 JUMP JUMPDEST DUP2 EQ PUSH2 0x249 JUMPI PUSH1 0x0 DUP1 REVERT JUMPDEST POP JUMP JUMPDEST PUSH1 0x0 DUP2 CALLDATALOAD SWAP1 POP PUSH2 0x25B DUP2 PUSH2 0x235 JUMP JUMPDEST SWAP3 SWAP2 POP POP JUMP JUMPDEST PUSH1 0x0 PUSH1 0x20 DUP3 DUP5 SUB SLT ISZERO PUSH2 0x277 JUMPI PUSH2 0x276 PUSH2 0x1F9 JUMP JUMPDEST JUMPDEST PUSH1 0x0 PUSH2 0x285 DUP5 DUP3 DUP6 ADD PUSH2 0x24C JUMP JUMPDEST SWAP2 POP POP SWAP3 SWAP2 POP POP JUMP JUMPDEST PUSH1 0x0 DUP2 MLOAD SWAP1 POP SWAP2 SWAP1 POP JUMP JUMPDEST PUSH1 0x0 DUP3 DUP3 MSTORE PUSH1 0x20 DUP3 ADD SWAP1 POP SWAP3 SWAP2 POP POP JUMP JUMPDEST PUSH1 0x0 JUMPDEST DUP4 DUP2 LT ISZERO PUSH2 0x2C8 JUMPI DUP1 DUP3 ADD MLOAD DUP2 DUP5 ADD MSTORE PUSH1 0x20 DUP2 ADD SWAP1 POP PUSH2 0x2AD JUMP JUMPDEST PUSH1 0x0 DUP5 DUP5 ADD MSTORE POP POP POP POP JUMP JUMPDEST PUSH1 0x0 PUSH1 0x1F NOT PUSH1 0x1F DUP4 ADD AND SWAP1 POP SWAP2 SWAP1 POP JUMP JUMPDEST PUSH1 0x0 PUSH2 0x2F0 DUP3 PUSH2 0x28E JUMP JUMPDEST PUSH2 0x2FA DUP2 DUP6 PUSH2 0x299 JUMP JUMPDEST SWAP4 POP PUSH2 0x30A DUP2 DUP6 PUSH1 0x20 DUP7 ADD PUSH2 0x2AA JUMP JUMPDEST PUSH2 0x313 DUP2 PUSH2 0x2D4 JUMP JUMPDEST DUP5 ADD SWAP2 POP POP SWAP3 SWAP2 POP POP JUMP JUMPDEST PUSH1 0x0 PUSH1 0x20 DUP3 ADD SWAP1 POP DUP2 DUP2 SUB PUSH1 0x0 DUP4 ADD MSTORE PUSH2 0x338 DUP2 DUP5 PUSH2 0x2E5 JUMP JUMPDEST SWAP1 POP SWAP3 SWAP2 POP POP JUMP JUMPDEST PUSH1 0x0 DUP1 REVERT JUMPDEST PUSH1 0x0 DUP1 REVERT JUMPDEST PUSH1 0x0 DUP1 REVERT JUMPDEST PUSH1 0x0 DUP1 DUP4 PUSH1 0x1F DUP5 ADD SLT PUSH2 0x365 JUMPI PUSH2 0x364 PUSH2 0x340 JUMP JUMPDEST JUMPDEST DUP3 CALLDATALOAD SWAP1 POP PUSH8 0xFFFFFFFFFFFFFFFF DUP2 GT ISZERO PUSH2 0x382 JUMPI PUSH2 0x381 PUSH2 0x345 JUMP JUMPDEST JUMPDEST PUSH1 0x20 DUP4 ADD SWAP2 POP DUP4 PUSH1 0x1 DUP3 MUL DUP4 ADD GT ISZERO PUSH2 0x39E JUMPI PUSH2 0x39D PUSH2 0x34A JUMP JUMPDEST JUMPDEST SWAP3 POP SWAP3 SWAP1 POP JUMP JUMPDEST PUSH1 0x0 DUP1 PUSH1 0x20 DUP4 DUP6 SUB SLT ISZERO PUSH2 0x3BC JUMPI PUSH2 0x3BB PUSH2 0x1F9 JUMP JUMPDEST JUMPDEST PUSH1 0x0 DUP4 ADD CALLDATALOAD PUSH8 0xFFFFFFFFFFFFFFFF DUP2 GT ISZERO PUSH2 0x3DA JUMPI PUSH2 0x3D9 PUSH2 0x1FE JUMP JUMPDEST JUMPDEST PUSH2 0x3E6 DUP6 DUP3 DUP7 ADD PUSH2 0x34F JUMP JUMPDEST SWAP3 POP SWAP3 POP POP SWAP3 POP SWAP3 SWAP1 POP JUMP JUMPDEST PUSH32 0x4E487B7100000000000000000000000000000000000000000000000000000000 PUSH1 0x0 MSTORE PUSH1 0x22 PUSH1 0x4 MSTORE PUSH1 0x24 PUSH1 0x0 REVERT JUMPDEST PUSH1 0x0 PUSH1 0x2 DUP3 DIV SWAP1 POP PUSH1 0x1 DUP3 AND DUP1 PUSH2 0x439 JUMPI PUSH1 0x7F DUP3 AND SWAP2 POP JUMPDEST PUSH1 0x20 DUP3 LT DUP2 SUB PUSH2 0x44C JUMPI PUSH2 0x44B PUSH2 0x3F2 JUMP JUMPDEST JUMPDEST POP SWAP2 SWAP1 POP JUMP JUMPDEST PUSH1 0x0 DUP3 SWAP1 POP SWAP3 SWAP2 POP POP JUMP JUMPDEST PUSH32 0x4E487B7100000000000000000000000000000000000000000000000000000000 PUSH1 0x0 MSTORE PUSH1 0x41 PUSH1 0x4 MSTORE PUSH1 0x24 PUSH1 0x0 REVERT JUMPDEST PUSH1 0x0 DUP2 SWAP1 POP DUP2 PUSH1 0x0 MSTORE PUSH1 0x20 PUSH1 0x0 KECCAK256 SWAP1 POP SWAP2 SWAP1 POP JUMP JUMPDEST PUSH1 0x0 PUSH1 0x20 PUSH1 0x1F DUP4 ADD DIV SWAP1 POP SWAP2 SWAP1 POP JUMP JUMPDEST PUSH1 0x0 DUP3 DUP3 SHL SWAP1 POP SWAP3 SWAP2 POP POP JUMP JUMPDEST PUSH1 0x0 PUSH1 0x8 DUP4 MUL PUSH2 0x4EE PUSH32 0xFFFFFFFFFFFFFFFFFFFFFFFFFFFFFFFFFFFFFFFFFFFFFFFFFFFFFFFFFFFFFFFF DUP3 PUSH2 0x4B1 JUMP JUMPDEST PUSH2 0x4F8 DUP7 DUP4 PUSH2 0x4B1 JUMP JUMPDEST SWAP6 POP DUP1 NOT DUP5 AND SWAP4 POP DUP1 DUP7 AND DUP5 OR SWAP3 POP POP POP SWAP4 SWAP3 POP POP POP JUMP JUMPDEST PUSH1 0x0 DUP2 SWAP1 POP SWAP2 SWAP1 POP JUMP JUMPDEST PUSH1 0x0 DUP2 SWAP1 POP SWAP2 SWAP1 POP JUMP JUMPDEST PUSH1 0x0 PUSH2 0x53F PUSH2 0x53A PUSH2 0x535 DUP5 PUSH2 0x510 JUMP JUMPDEST PUSH2 0x51A JUMP JUMPDEST PUSH2 0x510 JUMP JUMPDEST SWAP1 POP SWAP2 SWAP1 POP JUMP JUMPDEST PUSH1 0x0 DUP2 SWAP1 POP SWAP2 SWAP1 POP JUMP JUMPDEST PUSH2 0x559 DUP4 PUSH2 0x524 JUMP JUMPDEST PUSH2 0x56D PUSH2 0x565 DUP3 PUSH2 0x546 JUMP JUMPDEST DUP5 DUP5 SLOAD PUSH2 0x4BE JUMP JUMPDEST DUP3 SSTORE POP POP POP POP JUMP JUMPDEST PUSH1 0x0 SWAP1 JUMP JUMPDEST PUSH2 0x582 PUSH2 0x575 JUMP JUMPDEST PUSH2 0x58D DUP2 DUP5 DUP5 PUSH2 0x550 JUMP JUMPDEST POP POP POP JUMP JUMPDEST JUMPDEST DUP2 DUP2 LT ISZERO PUSH2 0x5B1 JUMPI PUSH2 0x5A6 PUSH1 0x0 DUP3 PUSH2 0x57A JUMP JUMPDEST PUSH1 0x1 DUP2 ADD SWAP1 POP PUSH2 0x593 JUMP JUMPDEST POP POP JUMP JUMPDEST PUSH1 0x1F DUP3 GT ISZERO PUSH2 0x5F6 JUMPI PUSH2 0x5C7 DUP2 PUSH2 0x48C JUMP JUMPDEST PUSH2 0x5D0 DUP5 PUSH2 0x4A1 JUMP JUMPDEST DUP2 ADD PUSH1 0x20 DUP6 LT ISZERO PUSH2 0x5DF JUMPI DUP2 SWAP1 POP JUMPDEST PUSH2 0x5F3 PUSH2 0x5EB DUP6 PUSH2 0x4A1 JUMP JUMPDEST DUP4 ADD DUP3 PUSH2 0x592 JUMP JUMPDEST POP POP JUMPDEST POP POP POP JUMP JUMPDEST PUSH1 0x0 DUP3 DUP3 SHR SWAP1 POP SWAP3 SWAP2 POP POP JUMP JUMPDEST PUSH1 0x0 PUSH2 0x619 PUSH1 0x0 NOT DUP5 PUSH1 0x8 MUL PUSH2 0x5FB JUMP JUMPDEST NOT DUP1 DUP4 AND SWAP2 POP POP SWAP3 SWAP2 POP POP JUMP JUMPDEST PUSH1 0x0 PUSH2 0x632 DUP4 DUP4 PUSH2 0x608 JUMP JUMPDEST SWAP2 POP DUP3 PUSH1 0x2 MUL DUP3 OR SWAP1 POP SWAP3 SWAP2 POP POP JUMP JUMPDEST PUSH2 0x64C DUP4 DUP4 PUSH2 0x452 JUMP JUMPDEST PUSH8 0xFFFFFFFFFFFFFFFF DUP2 GT ISZERO PUSH2 0x665 JUMPI PUSH2 0x664 PUSH2 0x45D JUMP JUMPDEST JUMPDEST PUSH2 0x66F DUP3 SLOAD PUSH2 0x421 JUMP JUMPDEST PUSH2 0x67A DUP3 DUP3 DUP6 PUSH2 0x5B5 JUMP JUMPDEST PUSH1 0x0 PUSH1 0x1F DUP4 GT PUSH1 0x1 DUP2 EQ PUSH2 0x6A9 JUMPI PUSH1 0x0 DUP5 ISZERO PUSH2 0x697 JUMPI DUP3 DUP8 ADD CALLDATALOAD SWAP1 POP JUMPDEST PUSH2 0x6A1 DUP6 DUP3 PUSH2 0x626 JUMP JUMPDEST DUP7 SSTORE POP PUSH2 0x709 JUMP JUMPDEST PUSH1 0x1F NOT DUP5 AND PUSH2 0x6B7 DUP7 PUSH2 0x48C JUMP JUMPDEST PUSH1 0x0 JUMPDEST DUP3 DUP2 LT ISZERO PUSH2 0x6DF JUMPI DUP5 DUP10 ADD CALLDATALOAD DUP3 SSTORE PUSH1 0x1 DUP3 ADD SWAP2 POP PUSH1 0x20 DUP6 ADD SWAP5 POP PUSH1 0x20 DUP2 ADD SWAP1 POP PUSH2 0x6BA JUMP JUMPDEST DUP7 DUP4 LT ISZERO PUSH2 0x6FC JUMPI DUP5 DUP10 ADD CALLDATALOAD PUSH2 0x6F8 PUSH1 0x1F DUP10 AND DUP3 PUSH2 0x608 JUMP JUMPDEST DUP4 SSTORE POP JUMPDEST PUSH1 0x1 PUSH1 0x2 DUP9 MUL ADD DUP9 SSTORE POP POP POP JUMPDEST POP POP POP POP POP POP POP JUMP JUMPDEST DUP3 DUP2 DUP4 CALLDATACOPY PUSH1 0x0 DUP4 DUP4 ADD MSTORE POP POP POP JUMP JUMPDEST PUSH1 0x0 PUSH2 0x72D DUP4 DUP6 PUSH2 0x299 JUMP JUMPDEST SWAP4 POP PUSH2 0x73A DUP4 DUP6 DUP5 PUSH2 0x712 JUMP JUMPDEST PUSH2 0x743 DUP4 PUSH2 0x2D4 JUMP JUMPDEST DUP5 ADD SWAP1 POP SWAP4 SWAP3 POP POP POP JUMP JUMPDEST PUSH1 0x0 PUSH1 0x20 DUP3 ADD SWAP1 POP DUP2 DUP2 SUB PUSH1 0x0 DUP4 ADD MSTORE PUSH2 0x769 DUP2 DUP5 DUP7 PUSH2 0x721 JUMP JUMPDEST SWAP1 POP SWAP4 SWAP3 POP POP POP JUMP INVALID LOG2 PUSH5 0x6970667358 0x22 SLT KECCAK256 0xE8 CALL SUB 0xFC PUSH11 0x59E7D9054B85044776FD56 0xBD 0xD6 PUSH8 0x162AE1059A65360F EXTCODEHASH 0x2E 0xBF 0xD5 POP PUSH5 0x736F6C6343 STOP ADDMOD ISZERO STOP CALLER "},"methodIdentifiers":{"getProfile(address)":"0f53a470","setProfile(string)":"235b37b1"}}}}}