{
  "_format": "hh-sol-artifact-1",
  "contractName": "ProfileRegistry",
  "sourceName": "src/ProfileRegistry.sol",
  "abi": [
    {
      "anonymous": false,
      "inputs": [
        {
          "indexed": true,
          "internalType": "address",
          "name": "owner",
          "type": "address"
        },
        {
          "indexed": false,
          "internalType": "string",
          "name": "cid",
          "type": "string"
        }
      ],
      "name": "ProfileSet",
      "type": "event"
    },
    {
      "inputs": [
        {
          "internalType": "address",
          "name": "owner",
          "type": "address"
        }
      ],
      "name": "getProfile",
      "outputs": [
        {
          "internalType": "string",
          "name": "cid",
          "type": "string"
        }
      ],
      "stateMutability": "view",
      "type": "function"
    },
    {
      "inputs": [
        {
          "internalType": "string",
          "name": "cid",
          "type": "string"
        }
      ],
      "name": "setProfile",
      "outputs": [],
      "stateMutability": "nonpayable",
      "type": "function"
    }
  ],
  "bytecode": "0x608060405234801561001057600080fd5b506107a8806100206000396000f3fe608060405234801561001057600080fd5b50600436106100365760003560e01c80630f53a4701461003b578063235b37b11461006b575b600080fd5b61005560048036038101906100509190610261565b610087565b604051610062919061031e565b60405180910390f35b610085600480360381019061008091906103a5565b610157565b005b60606000808373ffffffffffffffffffffffffffffffffffffffff1673ffffffffffffffffffffffffffffffffffffffff16815260200190815260200160002080546100d290610421565b80601f01602080910402602001604051908101604052809291908181526020018280546100fe90610421565b801561014b5780601f106101205761010080835404028352916020019161014b565b820191906000526020600020905b81548152906001019060200180831161012e57829003601f168201915b50505050509050919050565b81816000803373ffffffffffffffffffffffffffffffffffffffff1673ffffffffffffffffffffffffffffffffffffffff16815260200190815260200160002091826101a4929190610642565b503373ffffffffffffffffffffffffffffffffffffffff167f56d78f91013a9df87c3059830b445edb071285effe6a7fe07fe1b235b9ae0fc383836040516101ed92919061074e565b60405180910390a25050565b600080fd5b600080fd5b600073ffffffffffffffffffffffffffffffffffffffff82169050919050565b600061022e82610203565b9050919050565b61023e81610223565b811461024957600080fd5b50565b60008135905061025b81610235565b92915050565b600060208284031215610277576102766101f9565b5b60006102858482850161024c565b91505092915050565b600081519050919050565b600082825260208201905092915050565b60005b838110156102c85780820151818401526020810190506102ad565b60008484015250505050565b6000601f19601f8301169050919050565b60006102f08261028e565b6102fa8185610299565b935061030a8185602086016102aa565b610313816102d4565b840191505092915050565b6000602082019050818103600083015261033881846102e5565b905092915050565b600080fd5b600080fd5b600080fd5b60008083601f84011261036557610364610340565b5b8235905067ffffffffffffffff81111561038257610381610345565b5b60208301915083600182028301111561039e5761039d61034a565b5b9250929050565b600080602083850312156103bc576103bb6101f9565b5b600083013567ffffffffffffffff8111156103da576103d96101fe565b5b6103e68582860161034f565b92509250509250929050565b7f4e487b7100000000000000000000000000000000000000000000000000000000600052602260045260246000fd5b6000600282049050600182168061043957607f821691505b60208210810361044c5761044b6103f2565b5b50919050565b600082905092915050565b7f4e487b7100000000000000000000000000000000000000000000000000000000600052604160045260246000fd5b60008190508160005260206000209050919050565b60006020601f8301049050919050565b600082821b905092915050565b6000600883026104ee7fffffffffffffffffffffffffffffffffffffffffffffffffffffffffffffffff826104b1565b6104f886836104b1565b95508019841693508086168417925050509392505050565b6000819050919050565b6000819050919050565b600061053f61053a61053584610510565b61051a565b610510565b9050919050565b6000819050919050565b61055983610524565b61056d61056582610546565b8484546104be565b825550505050565b600090565b610582610575565b61058d818484610550565b505050565b5b818110156105b1576105a660008261057a565b600181019050610593565b5050565b601f8211156105f6576105c78161048c565b6105d0846104a1565b810160208510156105df578190505b6105f36105eb856104a1565b830182610592565b50505b505050565b600082821c905092915050565b6000610619600019846008026105fb565b1980831691505092915050565b60006106328383610608565b9150826002028217905092915050565b61064c8383610452565b67ffffffffffffffff8111156106655761066461045d565b5b61066f8254610421565b61067a8282856105b5565b6000601f8311600181146106a95760008415610697578287013590505b6106a18582610626565b865550610709565b601f1984166106b78661048c565b60005b828110156106df578489013582556001820191506020850194506020810190506106ba565b868310156106fc57848901356106f8601f891682610608565b8355505b6001600288020188555050505b50505050505050565b82818337600083830152505050565b600061072d8385610299565b935061073a838584610712565b610743836102d4565b840190509392505050565b60006020820190508181036000830152610769818486610721565b9050939250505056fea2646970667358221220e8f103fc6a59e7d9054b85044776fd56bdd667162ae1059a65360f3f2ebfd55064736f6c63430008150033",
  "linkReferences": {},
  "deployedLinkReferences": {}
}